:060000000A128A110C280F
:10000800FE00030EF2000A08F3000A128A114429BE
:100018000A128A110F28F601F701F801F901830184
:100028000A128A11C429A4288312031305108316FF
:1000380003130514831603170814D5288312031312
:100048008510831603138514831603178814D5287F
:10005800831203130511831603130515831603175B
:100068000815D528831203138511831603138515E4
:10007800831603178815D528831203138512831650
:1000880003138516831603170816D528831203133E
:100098000910831603130914831603178816D52825
:1000A8008312031389108316031389148316031705
:1000B8000817D5288312031309118316031309158A
:1000C800831603178817D52883120313061183167E
:1000D80003130615831603170914D528831203136F
:1000E8008611831603138615831603178914D528DA
:1000F80083120313861083160313861483160317BB
:100108000915D5288312031306128316031306163E
:10011800831603178915D52883120313061083162F
:1001280003130614831603170916D528831203131D
:100138008612831603138616831603178916D52885
:100148007508003A0319A928D5287408003A031934
:100158001828013A03192228033A03192C28013ACE
:1001680003193628073A03194028013A03194A287F
:10017800033A03195428013A03195E280F3A031960
:100188006828013A03197228033A03197C28013AAE
:1001980003198628073A03199028013A03199A285F
:1001A800D528831203139F131F171F083F394038A0
:1001B8009F00831603139F121F129F1383120313AA
:1001C8001F14203083120313A000A00BE92800009D
:1001D800080083120313A0008B178B150B108316CE
:1001E800031381131F2983160313161415144329A7
:1001F80083160313961495144329831603131615AF
:100208001515432983160313961595154329831647
:1002180003131616151643298316031396169516F7
:100228004329831603131617151743298316031337
:10023800961795174329831203132008F400F50134
:100248007508003A0319292943297408003A031943
:10025800F728013A0319FC28033A03190129013A3E
:1002680003190629073A03190B29013A031910291A
:10027800033A03191529013A03191A2943290800D1
:10028800831203138C1D49294A2970290A128A11DD
:1002980016220A128A11013A031D532954295D298D
:1002A80078080A128A1126220A128A118312031365
:1002B8008C110A128A1116220A128A11023A031D97
:1002C80066296729702976080A128A1126220A12D5
:1002D8008A11831203138C110B1C73297429872923
:1002E80083120313060886000B1006187C297D2943
:1002F80081290130F1007108F807861884298529B9
:1003080087290130F80273088A00720E8300FE0EF6
:100318007E0E0900831603178801890107308316AA
:1003280003138600880183120313860188010030B5
:10033800F400F5000A128A1117200A128A118B1785
:100348000B17831203138C11831603138C15851650
:1003580083120313A001A101A20124300A128A11F9
:10036800E4210A128A1100300A128A11ED200A12B9
:100378008A1101300A128A11ED200A128A11080026
:100388000A128A118E210A128A110A128A1102226D
:100398000A128A117508F7007408F60003308312F0
:1003A8000313A6008A30A5005530A400A40BDA294F
:1003B800A50BDA29A60BDA29C9290A128A110C28F1
:1003C800F400831603138712741DEB29EC29F42912
:1003D8008312031322088316031394008715FC293C
:1003E8008312031320082204831603139400871131
:1003F8007408831203132104940008008312031362
:100408009F149F18082A092A052A0C131E08A00001
:10041800A1012008A2002108A3002308F500220852
:10042800F40008000A128A111F220A128A11831284
:1004380003131308080083160313141C242A252AFF
:100448001F2A0800F00070088312031393000800A5
:08400000FF3FFF3FFF3FFF3FC0
:04400E00D420FF3F7C
:00000001FF
