:100000000A128A11F72F00308A000408840A820736
:10001000003443346F346E343A3400345034313465
:0C0020003A340034503432343A340034A6
:10081800F00070088312031388000800F0007008C5
:10082800831203139300080083160313141C1D2C52
:100838001E2C182C08000A128A1118240A128A1170
:10084800831203131308080000300A128A11612466
:100858000A128A1101300A128A1161240A128A11B5
:100868000800F20083120313891472080A128A110D
:100878000C240A128A118312031309151A30F10085
:10088800F10B442C00008312031309110800F30034
:10089800831603138712731D522C532C572C72087E
:1008A800940087155B2C70087204940087117308F4
:1008B80071048312031394000800F30083120313D6
:1008C800891073080A128A110C240A128A118312D9
:1008D800031309150B30F2006230F100F10B722C92
:1008E800F20B722C00008312031309110800F500A3
:1008F8007503031D802C812C8B2C74087F3EF60019
:1009080076080A128A1161240A128A119A2C023076
:100918007506031D902C912C9A2C7408BF3EF60086
:1009280076080A128A1161240A128A1108008316AD
:10093800031788018901831603138710071185019E
:100948008601880183120313860188018316031325
:100958008901831203130715F001F101F201203018
:100968000A128A114B240A128A110A128A11E424E3
:100978000A128A110800F500F301F401D62C730855
:10098800750784000A128A1103200A128A110A12B2
:100998008A1135240A128A110130F3070318F40A60
:1009A8000030F4077308750784000A128A110320BF
:1009B8000A128A11003A031DE22CE32CC32C08000A
:1009C80000300A128A110C240A128A112730F50005
:1009D800F530F400F40BEE2CF50BEE2C30300A1247
:1009E8008A1161240A128A110B30F5006230F40072
:1009F800F40BFC2CF50BFC2C000030300A128A1189
:100A080061240A128A114230F400F40B092D000007
:100A180030300A128A1161240A128A1138300A12F7
:100A28008A1161240A128A1100300A128A1161247B
:100A38000A128A110C300A128A1161240A128A11C8
:100A480000300A128A1161240A128A1106300A1229
:100A58008A1161240A128A11080083120313A10162
:100A6800FC1F372D382D3F2DFB09FC09FB0A031904
:100A7800FC0AA101A10AFA1F422D432D482DF909AC
:100A8800FA09F90A0319FA0A79087A0403194D2DA3
:100A98004E2D7D2DA001A00A5C2D01300310F90D0B
:100AA800FA0DFF3E031D522D0130FD007D08A00701
:100AB800FA1F5F2D602D512D7A087C02031D662DCB
:100AC80079087B02031C692D6A2D702D7908FB02B9
:100AD8007A08031CFC03FC0201300310FA0CF90C21
:100AE800FF3E031D712D0130A002031D7C2D7D2DBD
:100AF800602D21080319812D822D872DFB09FC0902
:100B0800FB0A0319FC0A7C08FA007B08F9000800B4
:100B1800F601F11F902D912D982DF009F109F00A99
:100B28000319F10AF601F60AF31F9B2D9C2DA52D3A
:100B3800F209F309F20A0319F30A0130F400740800
:100B4800F606F701F801700871040319AC2DAD2DF4
:100B5800E42DF501F50ABB2D01300310F00DF10D60
:100B6800FF3E031DB12D0130F4007408F507F11F95
:100B7800BE2DBF2DB02D01300310F70DF80DFF3E2F
:100B8800031DC02D71087302031DCC2D700872025D
:100B9800031CCF2DD02DD72D7008F2027108031C2D
:100BA800F303F302771401300310F10CF00CFF3E4D
:100BB800031DD82D0130F502031DE32DE42DBF2DB3
:100BC80076080319E82DE92DEE2DF709F809F70A3B
:100BD8000319F80A7808F1007708F00008000A12EB
:100BE8008A119B240A128A11831203138710033077
:100BF80083120313A3009730A200A20B012EA30BAC
:100C0800012E01300A128A1112240A128A110A12BC
:100C18008A111F240A128A1183120313B000643048
:100C2800F0000030F1003008A200A3012208F20011
:100C38002308F3000A128A118C250A128A117008F7
:100C4800303E83120313A5000A30F9000030FA0081
:100C58000A30F0000030F1003008A200A301220899
:100C6800F2002308F3000A128A118C250A128A114D
:100C78007108FC007008FB000A128A1131250A125B
:100C88008A117908303E83120313A6000A30F9004E
:100C98000030FA003008A200A3012208FB00230854
:100CA800FC000A128A1131250A128A117908303E8D
:100CB80083120313A7000A128A1128240A128A1120
:100CC800F401F40A01300A128A117B240A128A11EB
:100CD80006300A128A11BF240A128A11F401F40A92
:100CE80002300A128A117B240A128A118312031312
:100CF80025080A128A1135240A128A11831203134D
:100D080026080A128A1135240A128A11831203133B
:100D180027080A128A1135240A128A11023083120E
:100D28000313A4000430A300B930A200A20B9A2E2A
:100D3800A30B9A2EA40B9A2EA12E02300A128A1106
:100D480012240A128A110A128A111F240A128A11FD
:100D580083120313AF006430F0000030F1002F0855
:100D6800A200A3012208F2002308F3000A128A1144
:100D78008C250A128A117008303E83120313A800CA
:100D88000A30F9000030FA000A30F0000030F100B3
:100D98002F08A200A3012208F2002308F3000A1278
:100DA8008A118C250A128A117108FC007008FB0050
:100DB8000A128A1131250A128A117908303E8312E3
:100DC8000313A9000A30F9000030FA002F08A20026
:100DD800A3012208FB002308FC000A128A1131250E
:100DE8000A128A117908303E83120313AA000730C9
:100DF800F40001300A128A117B240A128A11013088
:100E08000A128A11BF240A128A110730F40002302C
:100E18000A128A117B240A128A11831203132808E2
:100E28000A128A1135240A128A1183120313290817
:100E38000A128A1135240A128A11831203132A0806
:100E48000A128A1135240A128A11023083120313F6
:100E5800A4000430A300B930A200A20B312FA30BC9
:100E6800312FA40B312F382F033083120313A30023
:100E78009730A200A20B3E2FA30B3E2F8312031321
:100E880087140711033083120313A3009730A200BD
:100E9800A20B4C2FA30B4C2F01300A128A111224DB
:100EA8000A128A110A128A111F240A128A1183123D
:100EB8000313AE006430F0000030F1002E08A200E9
:100EC800A3012208F2002308F3000A128A118C25D4
:100ED8000A128A117008303E83120313AB000A30DD
:100EE800F9000030FA000A30F0000030F1002E0856
:100EF800A200A3012208F2002308F3000A128A11B3
:100F08008C250A128A117108FC007008FB000A126D
:100F18008A1131250A128A117908303E8312031387
:100F2800AC000A30F9000030FA002E08A200A30134
:100F38002208FB002308FC000A128A1131250A1234
:100F48008A117908303E83120313AD000E30F40085
:100F580001300A128A117B240A128A110A300A12F5
:100F68008A11BF240A128A110E30F40002300A12C4
:100F78008A117B240A128A11831203132B080A127E
:100F88008A1135240A128A11831203132C080A12B3
:100F98008A1135240A128A11831203132D080A12A2
:100FA8008A1135240A128A11063083120313A40009
:100FB8001330A300AD30A200A20BE02FA30BE02F4B
:100FC800A40BE02F033083120313A3009730A20071
:100FD800A20BEC2FA30BEC2F831203130715F82D8C
:100FE8000A128A11002883120313AE01AF01B0015F
:080FF80083010A128A11F32D96
:08400000FF3FFF3FFF3FFF3FC0
:04400E00D420FF3F7C
:00000001FF
